:020000040000FA
:100000000C945D000C9485000C9485000C94850084
:100010000C9485000C9485000C9485000C9485004C
:100020000C9485000C9485000C9485000C9485003C
:100030000C9485000C9485000C9485000C9485002C
:100040000C9475020C9485000C94E5020C94BF028C
:100050000C9485000C9485000C9485000C9485000C
:100060000C9485000C94850000000008000201003B
:100070000003040700000000000000000000000072
:10008000250028002B0000000000240027002A0083
:10009000040404040404040402020202020203032E
:1000A0000303030301020408102040800102040836
:1000B0001020010204081020800511241FBECFEF7C
:1000C000D8E0DEBFCDBF11E0A0E0B1E0E2E4FFE0A8
:1000D00002C005900D92AC32B107D9F721E0ACE235
:1000E000B1E001C01D92A23DB207E1F710E0CDE5FD
:1000F000D0E004C02197FE010E949907CC35D107BA
:10010000C9F70E9417030C949F070C94000090E01D
:10011000FC01EC55FF4F249180579F4FFC018491C7
:10012000882399F090E0880F991FFC01EA57FF4F50
:10013000A591B491FC01E458FF4F859194918FB73C
:10014000F894EC91E22BEC938FBF089590E0FC01C2
:10015000E859FF4F2491FC01EC55FF4F3491FC010D
:10016000E057FF4FE491EE23C9F0222339F023300A
:1001700001F1A8F4213019F1223029F1F0E0EE0F5D
:10018000FF1FE458FF4FA591B4918FB7F894EC91FD
:10019000611126C030953E233C938FBF08952730D0
:1001A000A9F02830C9F0243049F7809180008F7D74
:1001B00003C0809180008F7780938000DFCF84B56B
:1001C0008F7784BDDBCF84B58F7DFBCF8091B0006E
:1001D0008F778093B000D2CF8091B0008F7DF9CF20
:1001E0003E2BDACF3FB7F8948091310190913201E4
:1001F000A0913301B091340126B5A89B05C02F3FD3
:1002000019F00196A11DB11D3FBFBA2FA92F982F3C
:100210008827BC01CD01620F711D811D911D42E037
:10022000660F771F881F991F4A95D1F70895AF92DF
:10023000BF92CF92DF92EF92FF920F931F93CF93D3
:10024000DF936C017B018B01040F151FEB015E0135
:10025000AE18BF08C017D10759F06991D601ED91CA
:10026000FC910190F081E02DC6010995892B79F769
:10027000C501DF91CF911F910F91FF90EF90DF901B
:10028000CF90BF90AF900895FC01538D448D252FE2
:1002900030E0842F90E0821B930B541710F0CF9620
:1002A000089501970895FC01918D828D981761F052
:1002B000A28DAE0FBF2FB11D5D968C91928D9F5F69
:1002C0009F73928F90E008958FEF9FEF0895FC0148
:1002D000918D828D981731F0828DE80FF11D858DFB
:1002E00090E008958FEF9FEF0895FC01918D228D8E
:1002F000892F90E0805C9F4F821B91098F73992713
:10030000089585E391E00E94750121E0892B09F4AD
:1003100020E0822F089580E090E0892B29F00E9450
:10032000810181110C9400000895FC01A48DA80F97
:10033000B92FB11DA35ABF4F2C91848D90E0019627
:100340008F739927848FA689B7892C93A089B18947
:100350008C91837080648C93938D848D981306C0E8
:100360000288F389E02D80818F7D80830895EF924C
:10037000FF920F931F93CF93DF93EC0181E0888F5F
:100380009B8D8C8D98131AC0E889F989808185FF2F
:1003900015C09FB7F894EE89FF896083E889F989D1
:1003A00080818370806480839FBF81E090E0DF91D3
:1003B000CF911F910F91FF90EF900895F62E0B8D26
:1003C00010E00F5F1F4F0F731127E02E8C8D8E11E1
:1003D0000CC00FB607FCFACFE889F989808185FF48
:1003E000F5CFCE010E949501F1CFEB8DEC0FFD2FE3
:1003F000F11DE35AFF4FF0829FB7F8940B8FEA8903
:10040000FB8980818062CFCFCF93DF93EC01888D11
:100410008823B9F0AA89BB89E889F9898C9185FD7F
:1004200003C0808186FD0DC00FB607FCF7CF8C910D
:1004300085FFF2CF808185FFEDCFCE010E9495012F
:10044000E9CFDF91CF910895FC0101900020E9F7F9
:100450003197AF01481B590BBC0185E391E00C9427
:1004600017018F929F92AF92BF920F931F93CF93DA
:10047000DF93CDB7DEB7A1970FB6F894DEBF0FBEFE
:10048000CDBF19A2423008F44AE08E010F5D1F4F24
:10049000842E912CB12CA12CA50194010E947707E8
:1004A000E62FB901CA01EA30F4F4E05DD801EE9319
:1004B0008D01232B242B252B79F790E080E01097DA
:1004C00019F0CD010E942402A1960FB6F894DEBF68
:1004D0000FBECDBFDF91CF911F910F91BF90AF9015
:1004E0009F908F900895E95CE1CF1F920F920FB615
:1004F0000F9211242F933F938F939F93AF93BF93AA
:1005000080912D0190912E01A0912F01B091300189
:1005100030912C0123E0230F2D3758F50196A11DB2
:10052000B11D20932C0180932D0190932E01A09357
:100530002F01B09330018091310190913201A0914F
:100540003301B09134010196A11DB11D8093310199
:1005500090933201A0933301B0933401BF91AF91D6
:100560009F918F913F912F910F900FBE0F901F90F1
:10057000189526E8230F0296A11DB11DD2CF1F9218
:100580000F920FB60F9211242F933F934F935F93C7
:100590006F937F938F939F93AF93BF93EF93FF934B
:1005A00085E391E00E949501FF91EF91BF91AF919A
:1005B0009F918F917F916F915F914F913F912F917B
:1005C0000F900FBE0F901F9018951F920F920FB6AD
:1005D0000F9211242F938F939F93EF93FF93E091AA
:1005E0004501F09146018081E0914B01F0914C0171
:1005F00082FD1BC0908180914E018F5F8F7320918F
:100600004F01821741F0E0914E01F0E0EB5CFE4FAC
:10061000958F80934E01FF91EF919F918F912F9134
:100620000F900FBE0F901F9018958081F4CF789493
:1006300084B5826084BD84B5816084BD85B58260E7
:1006400085BD85B5816085BD80916E008160809398
:100650006E00109281008091810082608093810001
:100660008091810081608093810080918000816011
:10067000809380008091B10084608093B10080916C
:10068000B00081608093B00080917A008460809394
:100690007A0080917A00826080937A0080917A005B
:1006A000816080937A0080917A00806880937A00DC
:1006B0001092C100E0914501F091460182E08083F3
:1006C000E0914101F09142011082E0914301F091EB
:1006D00044018FEC808310924D01E0914901F0912B
:1006E0004A0186E08083E0914701F09148018081D2
:1006F00080618083E0914701F091480180818860AA
:100700008083E0914701F091480180818068808377
:10071000E0914701F091480180818F7D808382E0E4
:100720000E94870083E00E94870084E00E94870087
:1007300085E00E94870010E4C0E0D0E010937C00C8
:1007400080917A00806480937A0080917A0086FD9F
:10075000FCCF6091780070917900072E000C880B17
:10076000990B0E94500620E030E040E05CE30E94DC
:1007700005072AEC36E24BE150E40E9405076B01C5
:100780007C0182E191E00E942402A7019601C70149
:10079000B6010E947207882309F420C18CE191E020
:1007A0000E94240288E291E00E9424020E94F2004A
:1007B0002B013C0188EE882E83E0982EA12CB12CD1
:1007C0000E94F2006419750986099709683E734012
:1007D00081059105A8F321E0821A9108A108B108CA
:1007E00088EE480E83E0581E611C711C8114910430
:1007F000A104B10429F72CEA3FEF4FEB5FE3C701F7
:10080000B6010E941A06181684F061E082E00E9488
:10081000A60060E083E00E94A60060E084E00E9401
:10082000A60060E085E00E94A60020E030E040ECF9
:100830005FE3C701B6010E94000787FD1AC026E6E4
:1008400036E646E250E4C701B6010E941A061816C1
:1008500084F061E082E00E94A60061E083E00E94F3
:10086000A60060E084E00E94A60060E085E00E94AF
:10087000A60020E030E040E250E4C701B6010E944B
:10088000000787FD1AC026E636E646E650E4C701B3
:10089000B6010E941A06181684F060E082E00E94F9
:1008A000A60061E083E00E94A60060E084E00E9470
:1008B000A60060E085E00E94A60020E030E040E66F
:1008C00050E4C701B6010E94000787FD1AC023E368
:1008D00033E343E950E4C701B6010E941A06181633
:1008E00084F060E082E00E94A60061E083E00E9464
:1008F000A60061E084E00E94A60060E085E00E941E
:10090000A60020E030E040E950E4C701B6010E94B3
:10091000000787FD1AC023E333E343EB50E4C7012C
:10092000B6010E941A06181684F060E082E00E9468
:10093000A60060E083E00E94A60061E084E00E94DF
:10094000A60060E085E00E94A60020E030E040EBD9
:1009500050E4C701B6010E94000787FD1AC023E3D7
:1009600033E343ED50E4C701B6010E941A0618169E
:1009700084F060E082E00E94A60060E083E00E94D4
:10098000A60061E084E00E94A60061E085E00E948C
:10099000A60020E030E040ED50E4C701B6010E941F
:1009A000000787FD10C060E082E00E94A60060E0C2
:1009B00083E00E94A60060E084E00E94A60061E05F
:1009C00085E00E94A600209709F4B8CE0E9481011C
:1009D000882309F4B3CE0E940000B0CE460157012F
:1009E000E894B7F82FEF3FEF4FE75FE7C501B40199
:1009F0000E94720781110DC02FEF3FEF4FE75FE7B5
:100A0000C501B4010E941A0618161CF480E291E098
:100A1000C7CE2FEF3FEF4FE75FE4C701B6010E945B
:100A2000000718161CF484E291E0BACE2FEF3FEFD6
:100A30004FE75FECC701B6010E941A0687FDF3CFAE
:100A400020E030E0A901C701B6010E941A0687FF25
:100A500054C06DE285E391E00E94B701C701B60181
:100A600090582AE037ED43EA5BE30E94AE052B0184
:100A70003C010E941F064B015C010E944E069B0137
:100A8000AC01C301B2010E94AD052B013C014AE05B
:100A9000C501B4010E9431026EE285E391E00E943B
:100AA000B70120E030E040E251E4C301B2010E940E
:100AB00005072B013C010E941F064B01B12CA12C04
:100AC0004AE0C501B4010E943102C501B4010E948F
:100AD0004E069B01AC01C301B2010E94AD0520E0AE
:100AE00030E040E251E40E9405070E941F0690E0BA
:100AF00080E04AE00E94310255CEC701B601B1CF75
:100B0000E5E3F1E01382128288EE93E0A0E0B0E02A
:100B100084839583A683B78384E091E09183808367
:100B200085EC90E09587848784EC90E097878687B2
:100B300080EC90E0918B808B81EC90E0938B828BAA
:100B400082EC90E0958B848B86EC90E0978B868B83
:100B5000118E128E138E148E08955058BB27AA271B
:100B60000E94C5050C94C6060E94B80638F00E9483
:100B7000BF0620F039F49F3F19F426F40C94B50613
:100B80000EF4E095E7FB0C94AF06E92F0E94D70620
:100B900058F3BA17620773078407950720F079F4B2
:100BA000A6F50C94F9060EF4E0950B2EBA2FA02DA5
:100BB0000B01B90190010C01CA01A0011124FF270A
:100BC000591B99F0593F50F4503E68F11A16F04005
:100BD000A22F232F342F4427585FF3CF4695379504
:100BE0002795A795F0405395C9F77EF41F16BA0BC9
:100BF000620B730B840BBAF09150A1F0FF0FBB1F77
:100C0000661F771F881FC2F70EC0BA0F621F731FBF
:100C1000841F48F4879577956795B795F7959E3F1C
:100C200008F0B0CF9395880F08F09927EE0F9795AD
:100C3000879508950E948B0608F481E008950E942C
:100C4000DF0688F09F5798F0B92F9927B751B0F079
:100C5000E1F0660F771F881F991F1AF0BA95C9F740
:100C600014C0B13091F00E94F906B1E008950C94DF
:100C7000F906672F782F8827B85F39F0B93FCCF392
:100C8000869577956795B395D9F73EF490958095BD
:100C9000709561957F4F8F4F9F4F0895E89409C0DD
:100CA00097FB3EF490958095709561957F4F8F4F9F
:100CB0009F4F9923A9F0F92F96E9BB279395F695B5
:100CC000879577956795B795F111F8CFFAF4BB0F33
:100CD00011F460FF1BC06F5F7F4F8F4F9F4F16C097
:100CE000882311F096E911C0772321F09EE8872F21
:100CF000762F05C0662371F096E8862F70E060E0DD
:100D00002AF09A95660F771F881FDAF7880F969555
:100D1000879597F90895990F0008550FAA0BE0E8F9
:100D2000FEEF16161706E807F907C0F012161306AD
:100D3000E407F50798F0621B730B840B950B39F4ED
:100D40000A2661F0232B242B252B21F408950A2653
:100D500009F4A140A6958FEF811D811D089597F993
:100D60009F6780E870E060E008959FEF80EC089551
:100D700000240A941616170618060906089500247A
:100D80000A9412161306140605060895092E0394F4
:100D9000000C11F4882352F0BB0F40F4BF2B11F468
:100DA00060FF04C06F5F7F4F8F4F9F4F089557FDC7
:100DB0009058440F551F59F05F3F71F04795880FC9
:100DC00097FB991F61F09F3F79F087950895121660
:100DD00013061406551FF2CF4695F1DF08C016160C
:100DE00017061806991FF1CF8695710561050894BD
:100DF0000895E894BB2766277727CB0197F90895D4
:100E00000E948B0608F48FEF08950E9418070C9437
:100E1000C6060E94B80638F00E94BF0620F095234F
:100E200011F00C94AF060C94B50611240C94FA063C
:100E30000E94D70670F3959FC1F3950F50E0551FA0
:100E4000629FF001729FBB27F00DB11D639FAA271F
:100E5000F00DB11DAA1F649F6627B00DA11D661F6E
:100E6000829F2227B00DA11D621F739FB00DA11D8F
:100E7000621F839FA00D611D221F749F3327A00D49
:100E8000611D231F849F600D211D822F762F6A2FE5
:100E900011249F5750409AF0F1F088234AF0EE0F4A
:100EA000FF1FBB1F661F771F881F91505040A9F777
:100EB0009E3F510580F00C94AF060C94FA065F3FFC
:100EC000E4F3983ED4F3869577956795B795F795B3
:100ED000E7959F5FC1F7FE2B880F911D969587952B
:100EE00097F908950E948B06880B990B0895A1E24B
:100EF0001A2EAA1BBB1BFD010DC0AA1FBB1FEE1F94
:100F0000FF1FA217B307E407F50720F0A21BB30BDE
:100F1000E40BF50B661F771F881F991F1A9469F75A
:100F200060957095809590959B01AC01BD01CF01B6
:100F30000895EE0FFF1F0590F491E02D0994F894A9
:100F4000FFCF00000000B701170144010402750142
:100F500053016701566F6C74616765203D006E61D7
:0E0F60006E00696E66006F7666000D0A000076
:107E0000112484B714BE81FFF0D085E080938100F7
:107E100082E08093C00088E18093C10086E0809377
:107E2000C20080E18093C4008EE0C9D0259A86E02C
:107E300020E33CEF91E0309385002093840096BBD3
:107E4000B09BFECF1D9AA8958150A9F7CC24DD24C4
:107E500088248394B5E0AB2EA1E19A2EF3E0BF2EE7
:107E6000A2D0813461F49FD0082FAFD0023811F036
:107E7000013811F484E001C083E08DD089C08234E0
:107E800011F484E103C0853419F485E0A6D080C0E4
:107E9000853579F488D0E82EFF2485D0082F10E0AE
:107EA000102F00270E291F29000F111F8ED06801E7
:107EB0006FC0863521F484E090D080E0DECF843638
:107EC00009F040C070D06FD0082F6DD080E0C81688
:107ED00080E7D80618F4F601B7BEE895C0E0D1E017
:107EE00062D089930C17E1F7F0E0CF16F0E7DF06D8
:107EF00018F0F601B7BEE89568D007B600FCFDCFD4
:107F0000A601A0E0B1E02C9130E011968C91119780
:107F100090E0982F8827822B932B1296FA010C0160
:107F200087BEE89511244E5F5F4FF1E0A038BF0790
:107F300051F7F601A7BEE89507B600FCFDCF97BE46
:107F4000E89526C08437B1F42ED02DD0F82E2BD052
:107F50003CD0F601EF2C8F010F5F1F4F84911BD097
:107F6000EA94F801C1F70894C11CD11CFA94CF0C13
:107F7000D11C0EC0853739F428D08EE10CD085E9AC
:107F80000AD08FE07ACF813511F488E018D01DD067
:107F900080E101D065CF982F8091C00085FFFCCF94
:107FA0009093C60008958091C00087FFFCCF809118
:107FB000C00084FD01C0A8958091C6000895E0E648
:107FC000F0E098E1908380830895EDDF803219F02E
:107FD00088E0F5DFFFCF84E1DECF1F93182FE3DFCA
:107FE0001150E9F7F2DF1F91089580E0E8DFEE27F6
:047FF000FF270994CA
:027FFE00040479
:00000001FF
